{
  "contractName": "Clinica",
  "abi": [
    {
      "anonymous": false,
      "inputs": [
        {
          "indexed": false,
          "internalType": "string",
          "name": "cpf",
          "type": "string"
        },
        {
          "indexed": false,
          "internalType": "string",
          "name": "nome",
          "type": "string"
        },
        {
          "indexed": false,
          "internalType": "uint256",
          "name": "idade",
          "type": "uint256"
        }
      ],
      "name": "PacienteCadastrado",
      "type": "event"
    },
    {
      "inputs": [
        {
          "internalType": "string",
          "name": "_nome",
          "type": "string"
        },
        {
          "internalType": "string",
          "name": "_cpf",
          "type": "string"
        },
        {
          "internalType": "uint256",
          "name": "_idade",
          "type": "uint256"
        },
        {
          "internalType": "string",
          "name": "_enderecoPaciente",
          "type": "string"
        }
      ],
      "name": "cadastrarPaciente",
      "outputs": [],
      "stateMutability": "nonpayable",
      "type": "function"
    },
    {
      "inputs": [
        {
          "internalType": "string",
          "name": "_cpf",
          "type": "string"
        }
      ],
      "name": "obterPaciente",
      "outputs": [
        {
          "internalType": "string",
          "name": "nome",
          "type": "string"
        },
        {
          "internalType": "uint256",
          "name": "idade",
          "type": "uint256"
        },
        {
          "internalType": "string",
          "name": "enderecoPaciente",
          "type": "string"
        }
      ],
      "stateMutability": "view",
      "type": "function",
      "constant": true
    },
    {
      "inputs": [],
      "name": "listarCPFs",
      "outputs": [
        {
          "internalType": "string[]",
          "name": "",
          "type": "string[]"
        }
      ],
      "stateMutability": "view",
      "type": "function",
      "constant": true
    }
  ],
  "bytecode": "0x608060405234801561001057600080fd5b50611139806100206000396000f3fe608060405234801561001057600080fd5b50600436106100415760003560e01c806321e7c2e01461004657806364c1382114610064578063ca40a96014610080575b600080fd5b61004e6100b2565b60405161005b91906107e2565b60405180910390f35b61007e60048036038101906100799190610983565b61018b565b005b61009a60048036038101906100959190610a3e565b6103f8565b6040516100a993929190610ae0565b60405180910390f35b60606001805480602002602001604051908101604052809291908181526020016000905b828210156101825783829060005260206000200180546100f590610b54565b80601f016020809104026020016040519081016040528092919081815260200182805461012190610b54565b801561016e5780601f106101435761010080835404028352916020019161016e565b820191906000526020600020905b81548152906001019060200180831161015157829003601f168201915b5050505050815260200190600101906100d6565b50505050905090565b600083905060008551116101d4576040517f08c379a00000000000000000000000000000000000000000000000000000000081526004016101cb90610bd1565b60405180910390fd5b6000815111610218576040517f08c379a000000000000000000000000000000000000000000000000000000000815260040161020f90610c3d565b60405180910390fd5b600c831161025b576040517f08c379a000000000000000000000000000000000000000000000000000000000815260040161025290610ccf565b60405180910390fd5b60008160405161026b9190610d2b565b908152602001604051809103902060040160009054906101000a900460ff16156102ca576040517f08c379a00000000000000000000000000000000000000000000000000000000081526004016102c190610db4565b60405180910390fd5b6040518060a00160405280868152602001828152602001848152602001838152602001600115158152506000826040516103049190610d2b565b908152602001604051809103902060008201518160000190816103279190610f80565b50602082015181600101908161033d9190610f80565b5060408201518160020155606082015181600301908161035d9190610f80565b5060808201518160040160006101000a81548160ff0219169083151502179055509050506001819080600181540180825580915050600190039060005260206000200160009091909190915090816103b59190610f80565b507f6eba1fe4dc300f564c41e1016a8675489c5e982c0be8273ae03238d6d4788dc08186856040516103e993929190611052565b60405180910390a15050505050565b60606000606060008460405161040e9190610d2b565b908152602001604051809103902060040160009054906101000a900460ff1661046c576040517f08c379a0000000000000000000000000000000000000000000000000000000008152600401610463906110e3565b60405180910390fd5b6000808560405161047d9190610d2b565b90815260200160405180910390206040518060a00160405290816000820180546104a690610b54565b80601f01602080910402602001604051908101604052809291908181526020018280546104d290610b54565b801561051f5780601f106104f45761010080835404028352916020019161051f565b820191906000526020600020905b81548152906001019060200180831161050257829003601f168201915b5050505050815260200160018201805461053890610b54565b80601f016020809104026020016040519081016040528092919081815260200182805461056490610b54565b80156105b15780601f10610586576101008083540402835291602001916105b1565b820191906000526020600020905b81548152906001019060200180831161059457829003601f168201915b50505050508152602001600282015481526020016003820180546105d490610b54565b80601f016020809104026020016040519081016040528092919081815260200182805461060090610b54565b801561064d5780601f106106225761010080835404028352916020019161064d565b820191906000526020600020905b81548152906001019060200180831161063057829003601f168201915b505050505081526020016004820160009054906101000a900460ff1615151515815250509050806000015181604001518260600151935093509350509193909250565b600081519050919050565b600082825260208201905092915050565b6000819050602082019050919050565b600081519050919050565b600082825260208201905092915050565b60005b838110156106f65780820151818401526020810190506106db565b60008484015250505050565b6000601f19601f8301169050919050565b600061071e826106bc565b61072881856106c7565b93506107388185602086016106d8565b61074181610702565b840191505092915050565b60006107588383610713565b905092915050565b6000602082019050919050565b600061077882610690565b610782818561069b565b935083602082028501610794856106ac565b8060005b858110156107d057848403895281516107b1858261074c565b94506107bc83610760565b925060208a01995050600181019050610798565b50829750879550505050505092915050565b600060208201905081810360008301526107fc818461076d565b905092915050565b6000604051905090565b600080fd5b600080fd5b600080fd5b600080fd5b7f4e487b7100000000000000000000000000000000000000000000000000000000600052604160045260246000fd5b61085a82610702565b810181811067ffffffffffffffff8211171561087957610878610822565b5b80604052505050565b600061088c610804565b90506108988282610851565b919050565b600067ffffffffffffffff8211156108b8576108b7610822565b5b6108c182610702565b9050602081019050919050565b82818337600083830152505050565b60006108f06108eb8461089d565b610882565b90508281526020810184848401111561090c5761090b61081d565b5b6109178482856108ce565b509392505050565b600082601f83011261093457610933610818565b5b81356109448482602086016108dd565b91505092915050565b6000819050919050565b6109608161094d565b811461096b57600080fd5b50565b60008135905061097d81610957565b92915050565b6000806000806080858703121561099d5761099c61080e565b5b600085013567ffffffffffffffff8111156109bb576109ba610813565b5b6109c78782880161091f565b945050602085013567ffffffffffffffff8111156109e8576109e7610813565b5b6109f48782880161091f565b9350506040610a058782880161096e565b925050606085013567ffffffffffffffff811115610a2657610a25610813565b5b610a328782880161091f565b91505092959194509250565b600060208284031215610a5457610a5361080e565b5b600082013567ffffffffffffffff811115610a7257610a71610813565b5b610a7e8482850161091f565b91505092915050565b600082825260208201905092915050565b6000610aa3826106bc565b610aad8185610a87565b9350610abd8185602086016106d8565b610ac681610702565b840191505092915050565b610ada8161094d565b82525050565b60006060820190508181036000830152610afa8186610a98565b9050610b096020830185610ad1565b8181036040830152610b1b8184610a98565b9050949350505050565b7f4e487b7100000000000000000000000000000000000000000000000000000000600052602260045260246000fd5b60006002820490506001821680610b6c57607f821691505b602082108103610b7f57610b7e610b25565b5b50919050565b7f4e6f6d65206f6272696761746f72696f00000000000000000000000000000000600082015250565b6000610bbb601083610a87565b9150610bc682610b85565b602082019050919050565b60006020820190508181036000830152610bea81610bae565b9050919050565b7f435046206f6272696761746f72696f0000000000000000000000000000000000600082015250565b6000610c27600f83610a87565b9150610c3282610bf1565b602082019050919050565b60006020820190508181036000830152610c5681610c1a565b9050919050565b7f50616369656e7465206465766520746572206d61697320646520313220616e6f60008201527f7300000000000000000000000000000000000000000000000000000000000000602082015250565b6000610cb9602183610a87565b9150610cc482610c5d565b604082019050919050565b60006020820190508181036000830152610ce881610cac565b9050919050565b600081905092915050565b6000610d05826106bc565b610d0f8185610cef565b9350610d1f8185602086016106d8565b80840191505092915050565b6000610d378284610cfa565b915081905092915050565b7f43504620646967697461646f2065727261646f206f75206a612063616461737460008201527f7261646f00000000000000000000000000000000000000000000000000000000602082015250565b6000610d9e602483610a87565b9150610da982610d42565b604082019050919050565b60006020820190508181036000830152610dcd81610d91565b9050919050565b60008190508160005260206000209050919050565b60006020601f8301049050919050565b600082821b905092915050565b600060088302610e367fffffffffffffffffffffffffffffffffffffffffffffffffffffffffffffffff82610df9565b610e408683610df9565b95508019841693508086168417925050509392505050565b6000819050919050565b6000610e7d610e78610e738461094d565b610e58565b61094d565b9050919050565b6000819050919050565b610e9783610e62565b610eab610ea382610e84565b848454610e06565b825550505050565b600090565b610ec0610eb3565b610ecb818484610e8e565b505050565b5b81811015610eef57610ee4600082610eb8565b600181019050610ed1565b5050565b601f821115610f3457610f0581610dd4565b610f0e84610de9565b81016020851015610f1d578190505b610f31610f2985610de9565b830182610ed0565b50505b505050565b600082821c905092915050565b6000610f5760001984600802610f39565b1980831691505092915050565b6000610f708383610f46565b9150826002028217905092915050565b610f89826106bc565b67ffffffffffffffff811115610fa257610fa1610822565b5b610fac8254610b54565b610fb7828285610ef3565b600060209050601f831160018114610fea5760008415610fd8578287015190505b610fe28582610f64565b86555061104a565b601f198416610ff886610dd4565b60005b8281101561102057848901518255600182019150602085019450602081019050610ffb565b8683101561103d5784890151611039601f891682610f46565b8355505b6001600288020188555050505b505050505050565b6000606082019050818103600083015261106c8186610a98565b905081810360208301526110808185610a98565b905061108f6040830184610ad1565b949350505050565b7f50616369656e7465206e616f20656e636f6e747261646f000000000000000000600082015250565b60006110cd601783610a87565b91506110d882611097565b602082019050919050565b600060208201905081810360008301526110fc816110c0565b905091905056fea2646970667358221220631f419f288d497c0db994782bc234947a056de5d7f30021f9ec4056ed2b310264736f6c63430008130033",
  "immutableReferences": {},
  "source": "// SPDX-License-Identifier: MIT\r\npragma solidity 0.8.19;\r\n\r\ncontract Clinica {\r\n\r\n    struct Paciente {\r\n        string nome;\r\n        string cpf;\r\n        uint idade;\r\n        string enderecoPaciente;\r\n        bool existe;\r\n    }\r\n\r\n    mapping(string => Paciente) private pacientes;\r\n    string[] private cpfs;\r\n\r\n    event PacienteCadastrado(string cpf, string nome, uint idade);\r\n\r\n    function cadastrarPaciente(\r\n        string memory _nome,\r\n        string memory _cpf,\r\n        uint _idade,\r\n        string memory _enderecoPaciente\r\n    ) public {\r\n\r\n        string memory cpfTrimmed = _cpf; // Opcional: voc pode aplicar mais normalizao se quiser\r\n\r\n        require(bytes(_nome).length > 0, \"Nome obrigatorio\");\r\n        require(bytes(cpfTrimmed).length > 0, \"CPF obrigatorio\");\r\n        require(_idade > 12, \"Paciente deve ter mais de 12 anos\");\r\n        require(!pacientes[cpfTrimmed].existe, \"CPF digitado errado ou ja cadastrado\");\r\n\r\n        pacientes[cpfTrimmed] = Paciente({\r\n            nome: _nome,\r\n            cpf: cpfTrimmed,\r\n            idade: _idade,\r\n            enderecoPaciente: _enderecoPaciente,\r\n            existe: true\r\n        });\r\n\r\n        cpfs.push(cpfTrimmed);\r\n        emit PacienteCadastrado(cpfTrimmed, _nome, _idade);\r\n    }\r\n\r\n    function obterPaciente(string memory _cpf) public view returns (\r\n        string memory nome,\r\n        uint idade,\r\n        string memory enderecoPaciente\r\n    ) {\r\n        require(pacientes[_cpf].existe, \"Paciente nao encontrado\");\r\n\r\n        Paciente memory p = pacientes[_cpf];\r\n        return (p.nome, p.idade, p.enderecoPaciente);\r\n    }\r\n\r\n    function listarCPFs() public view returns (string[] memory) {\r\n        return cpfs;\r\n    }\r\n}\r\n",
  "sourcePath": "C:\\TRABALHO\\block\\Fase2\\Clinica-Ganache\\contracts\\Clinica.sol",
  "compiler": {
    "name": "solc",
    "version": "0.8.19+commit.7dd6d404.Emscripten.clang"
  },
  "schemaVersion": "3.4.16",
  "updatedAt": "2025-09-19T16:16:50.765Z",
  "networkType": "ethereum",
  "devdoc": {
    "kind": "dev",
    "methods": {},
    "version": 1
  },
  "userdoc": {
    "kind": "user",
    "methods": {},
    "version": 1
  }
}